:1000000048080020293B00004F340000AB340000BA
:1000100000000000000000000000000000000000E0
:10002000000000000000000000000000831A000033
:10003000000000000000000063240000C73B000037
:10004000D73B00002D3C00002F3C0000313C00005D
:10005000333C0000353C0000CD2A0000373C000056
:10006000393C00003B3C00003D3C00003F3C0000B0
:10007000413C0000433C0000453C0000473C000080
:10008000493C00004B3C00004D3C00004F3C000050
:1000900077370000513C0000533C0000553C000005
:1000A000573C0000593C00005B3C00005D3C0000F8
:1000B0005F3C0000613C0000E1340000031D0000D3
:1000C000016802220A4302607047016802229143DC
:1000D00001607047016801220A430260704742686C
:1000E000DA4B13400B434360704741688022120192
:1000F0000A43426070474168D54A0A4042607047EF
:1001000041688022D2000A43426070474168D14A68
:100110000A40426070474268E04B13400B43436023
:100120007047416802220A434260704741680222D8
:10013000914341607047416801220A434260704721
:10014000416801229143416070478268FF239A43CE
:100150000A4382607047C268DA4B1340CA011A43EF
:10016000C2607047C26870239A430B011343C36097
:100170007047C2680F239A430A43C260704781697F
:1001800008000005C00F704710B4436E802464025D
:100190008C40A34314008C401C43446610BC704741
:1001A00010B4436E01248C40A34314008C401C43C4
:1001B000446610BC7047026E01238B4013430366F4
:1001C0007047026E01238B409BB29A4302667047D0
:1001D00010B408224A4382188023D3588022120682
:1001E0001A4308234B43C31880241A5110BC70478C
:1001F00010B408224A4382188023D2585200520871
:1002000008234B43C31880241A5110BC704730B4E4
:1002100008234B43C31880241B59DC4C1C40530358
:10022000234308244C4304198025635130BC704794
:1002300030B408234B43C31880241B59DC4C1C40AA
:100240005303234308244C4304198025635130BCD5
:10025000704730B408234B43C31880241B59DC007B
:10026000E4085307234308244C43041980256351B1
:1002700030BC704710B408224A4382188023D358F8
:10028000802252011A4308234B43C31880241A5179
:1002900010BC704710B408224A4382188023D358F8
:1002A0006A4A1A4008234B43C31880241A5110BCD1
:1002B000704710B408224A4382188023D358802202
:1002C00052011A4308234B43C31880241A5110BC0F
:1002D000704710B408224A4382188023D3585B4ADF
:1002E0001A4008234B43C31880241A5110BC70478E
:1002F00010B408224A4382188023D3588022520522
:100300001A4308234B43C31880241A5110BC70476A
:1003100010B408224A4382188023D358C64A1A4090
:1003200008234B43C31880241A5110BC704710B4E3
:1003300008224A4382188023D358802212011A438C
:1003400008234B43C31880241A5110BC704710B4C3
:1003500008224A4382188023D3583D4A1A40082372
:100360004B43C31880241A5110BC704710B40822A4
:100370004A4382188023D358802212011A4308234B
:100380004B43C31880241A5110BC704710B4082284
:100390004A4382188023D3582D4A1A4008234B43DE
:1003A000C31880241A5110BC704710B408224A4365
:1003B00082188023D358802212051A4308234B4306
:1003C000C31880241A5110BC704710B408224A4345
:1003D00082188023D358994A1A4008234B43C318E4
:1003E00080241A5110BC704730B408234B43C31803
:1003F00080241B59DB0ADB02134308244C430419F5
:100400008025635130BC704730B408234B43C31878
:1004100080241B59DB0ADB02134308244C430419D4
:100420008025635130BC704730B408234B43C31858
:1004300080241B59824C1C401304234308244C4342
:1004400004198025635130BC70470000FFEFFFFFA7
:10045000FFF7FFFFFFFBFFFF30B408234B43C31838
:1004600084241B595B005B08134308244C43041984
:100470008425635130BC704730B408234B43C31804
:1004800084241B59414C1C405303234308244C43F0
:1004900004198425635130BC70470000FFFCFFFF46
:1004A00030B408234B43C31884241B59404C1C40D0
:1004B0005303234308244C4304198425635130BC5F
:1004C000704700007FFEFFFF30B408234B43C31882
:1004D00084241B59DC00E4085307234308244C43BD
:1004E00004198425635130BC704730B408234B4352
:1004F000C31884241C59534B2340134308244C43F2
:1005000004198425635130BC704730B408234B4331
:10051000C31884241C594B4B2340134308244C43D9
:1005200004198425635130BC704730B408234B4311
:10053000C31884241C59404B2340134308244C43C4
:1005400004198425635130BC704730B408234B43F1
:10055000C31884241C593C4B2340134308244C43A8
:1005600004198425635130BC704730B408234B43D1
:10057000C31884241C59344B2340134308244C4390
:1005800004198425635130BC70470000FF1F0080B0
:1005900030B408234B43C31884241C59274B2340F1
:1005A000134308244C4304198425635130BC70471D
:1005B000FF1FFFFF30B408234B43C31884241B598B
:1005C000DB0ADB02134308244C43041984256351DE
:1005D00030BC704730B408234B43C31884241B59E4
:1005E000DB0ADB02134308244C43041984256351BE
:1005F00030BC704730B408234B43C31884241B59C4
:100600000F4C1C401304234308244C430419842535
:10061000635130BC7047A8490A6802430A607047BA
:10062000A6490A6802430A607047A5490A68302350
:100630009A4302430A607047FFFFFFEFFFFFFFF797
:10064000FFFF00F8FFEFFFFFFFF7FFFF70B50400AB
:100650000D0000200600002D00D129E199498C42AF
:1006600000D0FEE76A78002A08D06A78012A05D00F
:100670006A78022A02D06A78032A01D1012200E0B6
:100680000200D2B2002A00D1FEE7AA78002A2CD0BC
:10069000AA78012A29D0AA78022A26D0AA78032A81
:1006A00023D0AA78042A20D0AA78052A1DD0AA78B7
:1006B000062A1AD0AA78072A17D0AA78082A14D0AE
:1006C000AA78092A11D0AA780A2A0ED0AA780B2A69
:1006D0000BD0AA780C2A08D0AA780D2A05D0AA78BF
:1006E0000E2A02D0AA780F2A01D1012200E00200CE
:1006F000D2B2002A00D1FEE7EA78002A14D0EA78C4
:10070000012A11D0EA78022A0ED0EA78032A0BD007
:10071000EA78042A08D0EA78052A05D0EA78062A79
:1007200002D0EA78072A01D1012200E00200D2B209
:10073000002A00D1FEE7EA68002A04D0EA68802394
:100740005B019A4201D1012200E00200D2B2002AEC
:1007500000D1FEE7AA68002A08D0AA68102A05D0AE
:10076000AA68202A02D0AA68302A01D1012200E01A
:100770000200D2B2002A00D1FEE72A78002A08D06F
:100780002A78012A05D02A78022A02D02A78032A58
:1007900001D1012200E00200D2B2002A00D1FEE71E
:1007A0002A7C012A02D02A7C002A01D1012200E001
:1007B0000200D2B2002A00D1FEE76A69002A09D0FD
:1007C0006A6980235B009A4204D06A6980239B0097
:1007D0009A4201D10120FFE7C0B2002800D1FEE714
:1007E0008C420AD180200003FFF715FF8020800192
:1007F000FFF716FFA868FFF718FF2000FFF76AFC55
:1008000069692000FFF787FCE9682000FFF767FCB3
:1008100069782000FFF79FFCA9782000FFF7A9FC6A
:10082000E9782000FFF79EFC69682000FFF78DFC47
:10083000287C012803D12000FFF757FC02E02000AC
:10084000FFF759FC287E012803D12000FFF758FC50
:1008500002E02000FFF75AFC2878002809D1200088
:10086000FFF76EFC2000FFF761FC2000FFF728FC7B
:100870001CE02878012809D12000FFF752FC200055
:10088000FFF75EFC2000FFF71BFC0FE02878032831
:1008900009D12000FFF74FFC2000FFF747FC2000A4
:1008A000FFF70EFC02E02000FFF70FFC012006001E
:1008B0003000C0B270BD00003C2400404C24004019
:1008C0004424004000800240F8B506000C001500EA
:1008D000002001006A461170002C00D1A9E22168B5
:1008E000002904D0216880221201914201D1012106
:1008F00000E00100C9B2002900D1FEE761680029CB
:1009000004D0616880225201914201D1012100E0AE
:100910000100C9B2002900D1FEE7A169002904D075
:10092000A16980221201914201D1012100E0010060
:10093000C9B2002900D1FEE76169002904D06169CC
:1009400080225201914201D1012100E00100C9B28F
:10095000002900D1FEE7A16A002904D0A16A802203
:100960001205914201D1012100E00100C9B2002924
:1009700000D1FEE7616A002904D0616A8022520535
:10098000914201D1012100E00100C9B2002900D14A
:10099000FEE7A168002904D0A168802212069142D6
:1009A00001D1012100E00100C9B2002900D1FEE718
:1009B0006021615C012903D06021615C002901D1C3
:1009C000012100E00100C9B2002900D1FEE7802129
:1009D0008905E26B8A4200D3FEE780221201A36BF5
:1009E000934200D3FEE7A36C8B4200D3FEE7636C17
:1009F000934200D3FEE7636D8B4200D3FEE7216D87
:100A0000914200D3FEE73421615C012903D03421F7
:100A1000615C002901D1012100E00100C9B2002977
:100A200000D1FEE73521615C012903D03521615CED
:100A3000002901D1012100E00100C9B2002900D143
:100A4000FEE74121615C012903D04121615C00295D
:100A500001D1012100E00100C9B2002900D1FEE767
:100A60004021615C012903D04021615C002901D152
:100A7000012100E00100C9B2002900D1FEE74D21AB
:100A8000615C012903D04D21615C002901D1012164
:100A900000E00100C9B2002900D1FEE74C21615CF1
:100AA000012903D04C21615C002901D1012100E022
:100AB0000100C9B2002900D1FEE73621615C01299D
:100AC00003D03621615C002901D1012100E0010041
:100AD000C9B2002900D1FEE7E16D012902D0E16D24
:100AE000002901D1012100E00100C9B2002900D193
:100AF000FEE780277F02A16DB94202D0A16D0029D7
:100B000001D1012100E00100C9B2002900D1FEE7B6
:100B1000002D1DD0012D1BD0022D19D0032D17D073
:100B2000042D15D0052D13D0062D11D0072D0FD073
:100B3000082D0DD0092D0BD00A2D09D00B2D07D073
:100B40000C2D05D00D2D03D00E2D01D00F2D01D170
:100B50000120FFE7C0B2002800D1FEE73000FFF718
:100B60000EFB0028FAD1A26D29003000FFF70CFB24
:100B7000E26D29003000FFF713FBE06D002878D10B
:100B800060688021490188420FD12069800C4205AC
:100B9000520D29003000FFF70DFD20698203920BF2
:100BA00029003000FFF768FC06E0E0684205520DBE
:100BB00029003000FFF7FEFCA06D002804D160681A
:100BC00080214901884206D0A06DB84213D135205A
:100BD000205C01280FD1E06B800C4205520D2900EA
:100BE0003000FFF701FCE06B8203920B290030001C
:100BF000FFF70DFB06E0A06B4205520D2900300007
:100C0000FFF7F2FB226829003000FFF79EFC6268C4
:100C100029003000FFF769FCA26829003000FFF7C7
:100C20001BFC3420205C012804D129003000FFF790
:100C30007EFB03E029003000FFF789FB3520205CB4
:100C4000012804D129003000FFF714FB03E029003C
:100C50003000FFF71FFB3620205C012804D129005B
:100C60003000FFF7B5FAD4E029003000FFF7C0FAF2
:100C7000CFE0606980214901884210D1206A800C50
:100C80004205520D29003000FFF7A4FC206AC00B7A
:100C90004207520F29003000FFF702FC06E0E0692E
:100CA0004205520D29003000FFF794FCA06D00288A
:100CB00004D1606980214901884206D0A06DB84204
:100CC00014D14020205C012810D1A06C800C42057A
:100CD000520D29003000FFF797FBA06CC00B4207B4
:100CE000520F29003000FFF7A3FA06E0606C4205BE
:100CF000520D29003000FFF787FBA2692900300060
:100D0000FFF733FC626929003000FFF7FEFB41204A
:100D1000205C012804D129003000FFF727FB03E005
:100D200029003000FFF732FB4020205C012804D16D
:100D300029003000FFF7BDFA03E029003000FFF77B
:100D4000C8FA606A80214905884210D1206B800C66
:100D50004205520D29003000FFF74CFC206BC00B00
:100D60004207520F29003000FFF7AEFB06E0E06AB1
:100D70004205520D29003000FFF73CFCA06D002811
:100D800004D1606A80214905884206D0A06DB8422E
:100D900014D14C20205C012810D1606D800C4205DC
:100DA000520D29003000FFF73FFB606DC00B42077A
:100DB000520F29003000FFF74CFA06E0206D420583
:100DC000520D29003000FFF72FFBA26A29003000E6
:100DD000FFF7DEFB626A29003000FFF7A6FB4D201B
:100DE000205C012804D129003000FFF7DEFA03E07F
:100DF00029003000FFF7E9FA4C20205C012804D1DB
:100E000029003000FFF774FA03E029003000FFF7F3
:100E10007FFA6020205C012804D129003000FFF710
:100E2000CAF903E029003000FFF7CBF90120694639
:100E3000087068460078F2BD00B5010049B200298B
:100E400005D40121C206D20E9140114A116000BDA5
:100E500010480168802292040A43026070470D48DE
:100E600001680D4A0A40026070470C490A68024353
:100E70000A6070470A490A6802430A6070470949D4
:100E80000A68094B134003430B60704700000000E1
:100E900080E200E000240040FFFFFFFD342400401A
:100EA0004C24004044240040FFFFFFBF30B40368DF
:100EB0000C004C4303256C43A3430C004C435443A8
:100EC0001C43046030BC704700B50A000168100084
:100ED00050430323584308401100514300F05AFD8A
:100EE00000BD30B443680C004C4303256C43A3435E
:100EF0000C004C4354431C43446030BC704700B565
:100F00000A00416810005043032358430840110071
:100F1000514300F03FFD00BD30B483680C004C43EA
:100F200003256C43A3430C004C4354431C4384608F
:100F300030BC704700B50A0081681000504303239D
:100F4000584308401100514300F024FD00BD30B467
:100F5000C3680C004C4303256C43A3430C004C4373
:100F600054431C43C46030BC704700B50A00C168DC
:100F7000100050430323584308401100514300F030
:100F800009FD00BD30B403690C004C4303256C43DC
:100F9000A3430C004C4354431C43046130BC7047D2
:100FA00000B50A000169100050430323584308406C
:100FB0001100514300F0EEFC00BD30B443690C0059
:100FC0004C4303256C43A3430C004C4354431C4344
:100FD000446130BC704700B50A00416910005043BD
:100FE0000323584308401100514300F0D3FC00BDD7
:100FF00030B483690C004C4303256C43A3430C00BD
:101000004C4354431C43846130BC704700B50A0014
:101010008169100050430323584308401100514395
:1010200000F0B8FC00BD30B4C3690C004C4303258C
:101030006C43A3430C004C4354431C43C46130BC79
:10104000704700B50A00C16910005043032358439C
:1010500008401100514300F09DFC00BD30B4036A0C
:101060000C004C4303256C43A3430C004C435443F6
:101070001C43046230BC704700B50A00016A1000CE
:1010800050430323584308401100514300F082FCB1
:1010900000BD426A8BB2134343627047426A8BB20F
:1010A0009A434262704700B5406A084080B289B2F4
:1010B000884201D1012000E00020C0B200BD426A98
:1010C0000B04134343627047426A0B049A43426223
:1010D000704700B5406A0A0402400804824201D108
:1010E000012000E00020C0B200BD826A8BB2134331
:1010F00083627047826A8BB29A438262704700B5FE
:10110000806A084080B289B2884201D1012000E0A3
:101110000020C0B200BD826A0B0413438362704793
:10112000826A0B049A438262704700B5806A0A049F
:1011300002400804824201D1012000E00020C0B238
:1011400000BDC26A8BB21343C3627047C26A8BB2DE
:101150009A43C262704700B5C06A084080B289B243
:10116000884201D1012000E00020C0B200BDC26A67
:101170000B041343C3627047C26A0B049A43C262F2
:10118000704700B5C06A0A0402400804824201D1D7
:10119000012000E00020C0B200BD026B8BB21343FF
:1011A00003637047026B8BB29A430263704700B5CA
:1011B000006B084080B289B2884201D1012000E072
:1011C0000020C0B200BD026B0B04134303637047E1
:1011D000026B0B049A430263704700B5006B0A046C
:1011E00002400804824201D1012000E00020C0B288
:1011F00000BD426B8BB2134343637047426B8BB2AB
:101200009A434263704700B5406B084080B289B290
:10121000884201D1012000E00020C0B200BD00B52D
:10122000806B084080B289B2884201D1012000E081
:101230000020C0B200BD8AB28263704700B5806BE7
:101240000A0402400804824201D1012000E000208B
:10125000C0B200BD0A048263704700B5C06B08408D
:1012600080B289B2884201D1012000E00020C0B2E2
:1012700000BD8AB2C263704700B5C06B0A04024069
:101280000804824201D1012000E00020C0B200BD6C
:101290000A04C263704700B5006C084080B289B28E
:1012A000884201D1012000E00020C0B200BD8AB216
:1012B0000264704700B5006C0A04024008048242D0
:1012C00001D1012000E00020C0B200BD0A04026488
:1012D000704700B5406C084080B289B2884201D1A5
:1012E000012000E00020C0B200BD8AB24264704715
:1012F00000B5406C0A0402400804824201D101207A
:1013000000E00020C0B200BD0A044264704700B58E
:10131000806C084080B289B2884201D1012000E08F
:101320000020C0B200BD8AB28264704700B5C06CB4
:10133000084080B289B2884201D1012000E000203B
:10134000C0B200BD00B5C06C0A040240080482426D
:1013500001D1012000E00020C0B200BD00B5006D49
:10136000084080B289B2884201D1012000E000200B
:10137000C0B200BD00B5006D0A04024008048242FC
:1013800001D1012000E00020C0B200BD00B5406DD9
:10139000084080B289B2884201D1012000E00020DB
:1013A000C0B200BD00B5406D0A040240080482428C
:1013B00001D1012000E00020C0B200BD00B5806D69
:1013C000084080B289B2884201D1012000E00020AB
:1013D000C0B200BD00B5806D0A040240080482421C
:1013E00001D1012000E00020C0B200BD00B5C06DF9
:1013F000084080B289B2884201D1012000E000207B
:10140000C0B200BD10B50400002C3CD020680028FC
:1014100004D020688021C905884201D1012000E064
:101420000020C0B2002800D1FEE76068002802D08A
:101430006068012801D1012000E00020C0B200282E
:1014400000D1FEE72068002802D16068012801D0A1
:10145000012000E00020C0B2002800D1FEE780207B
:10146000FFF703FD80200006FFF704FD2068FFF76B
:1014700006FD6068002802D1FFF7F1FC01E0FFF7EC
:10148000E7FC012000E0002010BDF1B586B00F00A0
:101490000025002002906B4800686B4900F07AFA42
:1014A000C82148430490002069460870002F00D1ED
:1014B000C3E00698654988421FD00698644988426F
:1014C0001BD006986349884217D006986249884223
:1014D00013D00698614988420FD006986049884227
:1014E0000BD006985F49884207D006985E4988422B
:1014F00003D006985D49884201D1012000E0002018
:10150000C0B2002800D1FEE73868002806D038684D
:1015100080214902884201D2012000E00020C0B2AF
:10152000002800D1FEE77868002808D078680128F4
:1015300005D07868032802D07868022801D10120FC
:1015400000E00020C0B2002800D1FEE7387A002871
:1015500002D0387A012801D1012000E00020C0B279
:10156000002800D1FEE706984149401880110190FB
:1015700006983649884260D306983E4988425CD234
:1015800001983D490978884257D23C480199242264
:1015900051434058069988424FD18020FFF765FC9F
:1015A0003868E840002848D0012438682100A94064
:1015B00001400291029800283DD0387A012809D1D3
:1015C00002992F482D4A019B24267343D218D268D2
:1015D000904708E002992A48284A019B2426734331
:1015E000D21812699047264E7A6802993000060098
:1015F00022488446019B242043436046C018436828
:10160000300098470020039003980499884204D240
:1016100000BF0398401C0390F6E702993000174A78
:10162000019B24267343D218D26990471E20FFF7EE
:1016300003FC684604706D1CB2E76846007807B08A
:10164000F0BD00001000002040420F00000C0040E0
:10165000400C0040800C0040C00C0040000D0040D9
:10166000400D0040800D0040C00D0040000E0040C5
:1016700000F4FFBF010E0040623C0000E4390000AE
:10168000400E0040F8B505000C0003263A4885429C
:1016900017D04148854214D03848854211D0384887
:1016A00085420ED0374885420BD03748854208D056
:1016B0003648854205D03648854202D035488542B5
:1016C00001D1012000E00020C0B2002800D1FEE7D7
:1016D000012C2DD0022C2BD0042C29D0082C27D063
:1016E000102C25D0202C23D0402C21D0802C1FD092
:1016F0008020400084421BD080208000844217D08C
:101700008020C000844213D08020000184420FD08A
:101710008020400184420BD080208001844207D089
:101720008020C001844203D080200002844201D185
:10173000012000E00020C0B2002800D1FEE71848D8
:10174000281887110C48854214D31648854211D2B7
:101750001548007887420DD2104A2420784310584B
:10176000A84207D121004E4824237B43D218926817
:10177000904706003000F2BD000C0040800C004095
:10178000C00C0040000D0040400D0040800D0040A6
:10179000C00D0040000E0040400C0040E439000045
:1017A00000F4FFBF010E0040623C0000F8B50500E8
:1017B0000C00002007003B498D4217D067498D423D
:1017C00014D067498D4211D037498D420ED0374928
:1017D0008D420BD036498D4208D036498D4205D016
:1017E00035498D4202D035498D4201D1012100E0B9
:1017F0000100C9B2002900D1FEE7012C2DD0022C36
:101800002BD0042C29D0082C27D0102C25D0202C0C
:1018100023D0402C21D0802C1FD0802149008C4225
:101820001BD0802189008C4217D08021C9008C42B6
:1018300013D0802109018C420FD0802149018C42B4
:101840000BD0802189018C4207D08021C9018C42B4
:1018500003D0802109028C4201D10120FFE7C0B2F0
:10186000002800D1FEE73F48281886110D48854220
:1018700014D33D48854211D23C48007886420DD2AF
:101880003B4A242070431058A84207D12100044845
:1018900024237343D2189269904707003800F2BDA1
:1018A000400E0040000C0040C00C0040000D004005
:1018B000400D0040800D0040C00D0040000E004073
:1018C00070B505000C002B48854217D0234885428F
:1018D00014D02348854211D0274885420ED027488E
:1018E00085420BD02648854208D02648854205D03F
:1018F0002548854202D02548854201D1012000E0DB
:101900000020C0B2002800D1FEE7002C05D08020C6
:101910004002844201D2012000E00020C0B2002831
:1019200000D1FEE70F48281886111248854213D3CC
:101930000D48854210D20D48007886420CD20C4AE0
:10194000242070431058A84206D1210010482423B7
:101950007343D218D269904770BD0000400C00401C
:10196000800C004000F4FFBF010E0040623C00000C
:10197000E4390000000C0040C00C0040000D0040A5
:10198000400D0040800D0040C00D0040000E0040A2
:10199000400E00400022030A8B420BD203098B4207
:1019A00019D243088B422ED2411A00D2014652412D
:1019B00010467047FF2209023FD012068B4205D322
:1019C000121209028B4201D31212090203098B423F
:1019D00019D300E0090AC3098B4201D3CB01C01A15
:1019E000524183098B4201D38B01C01A52414309F2
:1019F0008B4201D34B01C01A524103098B4201D3E0
:101A00000B01C01A5241C3088B4201D3CB00C01A4C
:101A1000524183088B4201D38B00C01A52414308C4
:101A20008B4201D34B00C01A5241884200D3401A66
:101A30005241CFD201461046704708B500F020F859
:101A400008BD30B501684118446862088A18836887
:101A5000E40704D54C461B1901E0641C09D19142EE
:101A600003D00C7864B2491C01E00C3030BD0D7815
:101A7000491C1D705B1C002CEFD4641EF7D5EEE7EB
:101A80007047FEE790490A68904B134003430B6090
:101A900070478D490A688E4B134003430B607047B3
:101AA00089490A688B4B134003430B607047864992
:101AB0000A6807239A4302430A6070478248006815
:101AC0004007400F704784490A68844B1340034322
:101AD0000B6070478048016801220A43026070472A
:101AE0007F490A68FF239A4302430A6070477D4892
:101AF00001680800C007C00F70477B490A687B4B2C
:101B0000134003430B60704777480168E0200002F0
:101B10000840704774480168802252010A430260FD
:101B20007047714801680800C004C00F70476E48D4
:101B300001686F4A0A40026070476B490A686D4B42
:101B4000134002021A430A60704767480068000A9F
:101B50000007000F70476448016808008007C00F45
:101B600070476148016801220A4302607047A44837
:101B700001680800C007C00F7047A248016804222E
:101B80000A43026070479F48016808004007C00F81
:101B900070479C48016802220A43026070479948D6
:101BA000016808008007C00F70479648016802224C
:101BB000914301607047082093490860704792483C
:101BC000016808004007C00F704704208E49086074
:101BD00070478D48016808008007C00F70470220D9
:101BE00089490860704700B588480178062918D1EE
:101BF00087490978C9B2082913D186490978C9B239
:101C000023290ED184490978C9B2082909D1834909
:101C10000978C9B2062904D181490978C9B20929CC
:101C20003CD00178062918D179490978C9B2082928
:101C300013D178490978C9B223290ED17649097898
:101C4000C9B2092909D175490978C9B2022904D153
:101C500073490978C9B2202920D00078062818D104
:101C60006B480078C0B2082813D16A480078C0B227
:101C700023280ED168480078C0B2092809D16748E6
:101C80000078C0B2032804D165480078C0B20428A7
:101C900004D0A8480168A84A0A40026000BD026852
:101CA000F0239A430A430260704702680F239A4365
:101CB0000A430260704781B0002100919F49016092
:101CC0000168009101B0704700240040FFFFC7FF8A
:101CD000FFFFF8FFFFF8FFFF04240040FFFFF0FFC5
:101CE000082400400C24004020240040FF1FFFFF78
:101CF000FFEFFFFFFFF0FFFF81684022914381600B
:101D00007047F8B5002427002500404801780629CF
:101D100018D13F490978C9B2082913D13D4909783A
:101D2000C9B223290ED13C490978C9B2082909D181
:101D30003A490978C9B2062904D139490978C9B2A2
:101D4000092937D00178062918D131490978C9B253
:101D5000082913D12F490978C9B223290ED12E4958
:101D60000978C9B2092909D12C490978C9B20229CF
:101D700004D12B490978C9B220291BD00078062844
:101D80001CD123480078C0B2082817D12148007818
:101D9000C0B2232812D120480078C0B209280DD142
:101DA0001E480078C0B2032808D11D480078C0B290
:101DB000042803D1FFF79BFE002801D10124FFE78F
:101DC000E4B2002C00D1FEE7FFF7E9FE012806D1BE
:101DD000FFF7FFFE012802D1AC4800F095F8FFF7AD
:101DE000D2FE0400FFF7EBFE0600012C06D1012E07
:101DF00004D1FFF7EAFE0120A5490860F1BD00000B
:101E0000202400402C2400403024004020FAFF1FF2
:101E100021FAFF1F22FAFF1F23FAFF1F24FAFF1FD8
:101E200025FAFF1F38B50400200000280CD08021BF
:101E3000490288421AD080218902884228D0C021D4
:101E40008902884236D047E092480168090C02684E
:101E5000D3439AB2914201D1006802E0B4480088AD
:101E600080B2C0B2FFF73CFE302546E0B1480168C1
:101E7000090C0268D3439AB2914201D1006802E092
:101E8000AD48008880B2C0B2FFF72AFE502534E08A
:101E9000AA480168090C0268D3439AB2914201D161
:101EA000006802E0A648008880B2C0B2FFF718FEC2
:101EB000602522E0A3480168090C0268D3439AB266
:101EC000914201D1006802E09F48008880B2C0B210
:101ED000FFF706FE702510E06E480168090C0268E5
:101EE000D3439AB2914201D1006802E09048008841
:101EF00080B2C0B2FFF7F4FD30252000FFF7E3FD0C
:101F0000FFF7E8FD280032BD10B50400FFF767FEBB
:101F1000FFF751FEFFF749FEFFF765FE2068FFF768
:101F200081FF0020FFF7C3FD88488949086000F061
:101F300075F910BD50240040FFFFFFBF5A5A3412FC
:101F40007FB50400824D28688049884259D1FFF747
:101F5000B5FD012855D0FFF7D7FD616888420DD146
:101F6000FFF7DFFDA168884208D1FFF7EEFDE168C9
:101F7000884203D1FFF7FBFD012812D0FFF7C4FD13
:101F80006168884234D1FFF7CCFDA16888422FD127
:101F9000FFF7DBFDE16888422AD1FFF7E8FD012861
:101FA00026D1FFF7D8FD0090FFF7D5FD0190FFF790
:101FB000D2FD02900098002823D00198002820D05C
:101FC000029800281DD0FFF70AFEFFF702FE002846
:101FD00017D1EFF3108672B600202860FFF7D9FD05
:101FE0000120FFF764FD00F019F986F3108808E07E
:101FF000FFF7DBFDFFF7F7FD00202860200000F071
:102000004BF87FBDF8B586B0060000252C002F00E8
:1020100018210022684600F0FDF90C2000900320F2
:102020000190029502200490059503906946494865
:1020300000F072FA4848FFF75FFEF068FFF77DFD99
:10204000B068012802D1FFF765FD01E0FFF76FFDE1
:102050007068FFF752FDFFF784FDFFF77CFD070076
:10206000641C20006421FFF795FC002902D13B4845
:10207000FFF721FE012F02D039488442EDD1FFF74E
:10208000AEFD30683749086007B0F0BD283C00005D
:102090003C00002040FBFF1F38B50400324D0221F8
:1020A0002800FFF702FE50212800FFF7F8FD20006E
:1020B000FFF7A8FFFFF789FD0020FFF7F1FC0020E4
:1020C000FFF7E7FC0020FFF7DDFC0120FFF7EFFC46
:1020D00024480168254A914208D200212800FFF7D0
:1020E000E4FD00212800FFF7DAFD14E00068204934
:1020F000884208D200212800FFF7D7FD10212800D0
:10210000FFF7CDFD07E000212800FFF7CEFD1021ED
:102110002800FFF7C4FDFFF73CFDFFF72EFD002070
:1021200000901F21684600F077FB00F077F831BD82
:10213000B2FBFF1F3CFBFF1FB4FBFF1F38FBFF1F61
:10214000B6FBFF1F34FBFF1FB8FBFF1F55AAAA55A4
:1021500040000020800C0040002800400014014096
:10216000FFFF03000C0000200010004001127A0065
:102170000124F40010B500200121574C22685208B8
:102180000A40002A02D0012A18D01AE0854A1268B3
:10219000120C1207120F012A04D00CD3032A07D005
:1021A00003D308E0804A100007E0804A100004E0F2
:1021B0007F4A100001E07F4A100002E07E4A126868
:1021C0001000226812095207520F002A0BD0022A6F
:1021D0000ED00BD3042A0FD00CD3062A12D00FD363
:1021E000072A13D013E0FFF7D5FB10E040080EE0FC
:1021F00080080CE0C0080AE00C21FFF7CBFB06E0EA
:10220000000904E01821FFF7C5FB00E04009216840
:10221000090C8905890D491C484310BD38B50724B0
:10222000664D28682040012806D0022809D00528DC
:102230000CD006280FD013E05F48006860490860A2
:1022400029E0FFF797FF5E49086024E05D480068D9
:102250005B4908601FE080200002594908601AE0CD
:1022600050480068000C0007000F012804D00FD36D
:10227000032809D004D30BE04B48514908600AE019
:102280004A484F49086006E049484D49086002E065
:1022900048484B4908602868000A0440042C06D0CE
:1022A00019D3062C0DD007D3072C0FD013E04448C8
:1022B0000168490801600EE0414801688908016031
:1022C00009E03F480168C908016004E03C48016832
:1022D00009090160FFE731BD0C24004070B53A48A0
:1022E000016880220A430260016820220A430260DA
:1022F000364C374D2560072036490A6802430A608C
:10230000256035492D4A13680B4013605523334E21
:102310003360136819401160314908600120314968
:10232000086003203049086030480168090C0268E1
:10233000D3439AB2914201D1006802E02C48008850
:1023400080B2C0B22B4908602B480168090C0268B2
:10235000D3439AB2914201D1006802E02748008835
:1023600080B2C0B22649086026480168264A0A4061
:1023700002600168C02252000A43026023480168DB
:1023800010220A43026022490A688023DB001343BB
:102390000B600168102291430160FFF73FFF256049
:1023A00070BD0000042400400024F40000366E01DB
:1023B0000048E80100127A000C00002000240040D0
:1023C00010000020080000203424004000140140C8
:1023D0005A5A341204140140FFFFFFF71C24004036
:1023E00000280040042800400400004040FBFF1F7C
:1023F000B2FBFF1F0824004020FBFF1FB0FBFF1FA4
:1024000014240040C40C0040FFFF7FFE382400402D
:102410003C0400401206130A1A43130C1A4300BF6F
:10242000094205D0830705D00270401C491EF9D12E
:10243000704700001300103906D330B414001500A3
:1024400010393CC0FCD230BC490700D30CC000D5C9
:1024500004C0890002D30280801C002900D50270CC
:102460007047FEE72B490A6802430A60704702681A
:102470008BB213430360704702688BB29A430260C9
:10248000704742680B0413434360704742680B0473
:102490009A434260704742688BB21343436070476F
:1024A00042688BB29A434260704782688BB2134392
:1024B0008360704782688BB29A438260704730B401
:1024C000C3680C004C4303256C43A3430C004C43EE
:1024D00054431C43C46030BC704730B4036A0C00E2
:1024E0004C4303256C43A3430C004C4354431C430F
:1024F000046230BC704730B4036B0C004C430325BE
:102500006C43A3430C004C4354431C43046330BC52
:102510007047000034240040F8B505000C0000208E
:102520000700060001006A461170002C00D1F4E09B
:102530007C498D4217D07C498D4214D07B498D4215
:1025400011D07B498D420ED07A498D420BD07A4909
:102550008D4208D079498D4205D079498D4202D00B
:102560006F498D4201D1012100E00100C9B200296B
:1025700000D1FEE72168002906D02168802252029E
:10258000914201D2012100E00100C9B2002900D12D
:10259000FEE76168032908D06168002905D06168F9
:1025A000012902D06168022901D1012100E0010066
:1025B000C9B2002900D1FEE7A168012902D0A168B3
:1025C000002901D1012100E00100C9B2002900D198
:1025D000FEE7E168002908D0E168012905D0E1683B
:1025E000022902D0E168032901D1012100E00100A4
:1025F000C9B2002900D1FEE72169002905D021696F
:10260000012902D02169022901D1012100E0010044
:10261000C9B2002900D1FEE76169002908D06169CB
:10262000012905D06169022902D06169032901D11C
:102630000120FFE7C0B2002800D1FEE78020FFF7AD
:1026400011FF2068F840002864D020680121B940BB
:1026500001400E00002E5BD06068032808D13100D5
:102660002800FFF709FF31002800FFF723FF1CE0D7
:102670006068002804D131002800FFF7F8FE03E06D
:1026800031002800FFF7F8FEA068002804D13100CF
:102690002800FFF70FFF03E031002800FFF705FFD8
:1026A000E26831002800FFF726FF2069002808D1E2
:1026B00031002800FFF7EAFE31002800FFF7EBFEAB
:1026C00013E02069012808D131002800FFF7E8FE57
:1026D00031002800FFF7D5FE07E031002800FFF7A2
:1026E000D5FE31002800FFF7DBFE6068022805D127
:1026F000626931002800FFF7F0FE04E0002231009B
:102700002800FFF7EAFE626831002800FFF7D7FED5
:102710007F1C96E701206946087068460078F2BD84
:10272000000E0040000C0040400C0040800C0040B7
:10273000C00C0040000D0040400D0040800D0040E6
:10274000C00D004000B5010049B2002905D40121A7
:10275000C206D20E91402A4A116000BD00B50100A8
:1027600049B2002905D40121C206D20E9140254A62
:10277000116000BDF0B5020052B2002A1CD4032241
:10278000214B040064B2A40804256C431C59FF25A6
:102790001600064008277E43B540AC438D01EDB2DC
:1027A00002400826724395402543020052B2920827
:1027B000042462439D5022E00F24144B03220500A1
:1027C0006DB22540083DAE0804256E4305006DB28C
:1027D0002C40083CA40804256C431F59FF24A44640
:1027E00015000540082465436446AC40A7438C01AE
:1027F000E4B2024008256A4394403C439C51F0BD3A
:1028000000E100E080E100E000E400E01CED00E019
:1028100080B500F017F801BD38B504000D00206840
:10282000042801D303202060280040B2FFF796FF60
:102830002168280040B2FFF79DFF280040B2FFF753
:1028400081FF31BD0448016804220A430260016827
:1028500001220A430260704710E000E000B5010069
:1028600049B2002905D40121C206D20E9140964AF0
:10287000116000BD00B5010049B2002905D4012155
:10288000C206D20E9140A54A116000BD00B50100FC
:1028900049B2002905D40121C206D20E9140A04AB6
:1028A000116000BDF0B5020052B2002A1CD4032210
:1028B0009C4B040064B2A40804256C431C59FF25FA
:1028C0001600064008277E43B540AC438D01EDB2AB
:1028D00002400826724395402543020052B29208F6
:1028E000042462439D5022E00F248F4B03220500F5
:1028F0006DB22540083DAE0804256E4305006DB25B
:102900002C40083CA40804256C431F59FF24A4460E
:1029100015000540082465436446AC40A7438C017C
:10292000E4B2024008256A4394403C439C51F0BD08
:10293000016802220A430260704701680222914343
:10294000016070474168802292010A4342607047EB
:10295000C1690800C004C00F704780214901C161EE
:10296000704780210901C16170478021C900C161A0
:102970007047C16908000006C00F70478021C1611F
:102980007047016A802252010A4302627047016A5D
:102990000800C004C00F7047016A6B4A0A40026217
:1029A0007047016A694A0A4002627047016A8022E0
:1029B0000A4302627047016A08000006C00F7047B0
:1029C0004A07520FC262704700B50722C06A08402A
:1029D00010400A40904201D1012000E00020C0B226
:1029E00000BD00B5042A08D110235343C3181B6946
:1029F00010235343C318196107E010235343C3182E
:102A00001B6A10235343C318196200BD10B5042A72
:102A10000BD110235343C3185B690F24A3430B430B
:102A200010245443041963610AE010235343C3186C
:102A30005B6A0F24A3430B431024544304196362BD
:102A400010BD00B5042A08D110235343C3189B6955
:102A500010235343C318996107E010235343C3184D
:102A60009B6A10235343C318996200BD00B5042A22
:102A700008D110235343C318DB6910235343C318F1
:102A8000D96107E010235343C318DB6A1023534373
:102A9000C318D96200BD8021490040587047822187
:102AA000490040580007000F7047842149004058F2
:102AB000704786214900405870478AB2426170478A
:102AC0008AB282617047000000E100E070B5854D78
:102AD0002800FFF770FF06002800FFF74AFF0400F8
:102AE000012E07D1012C05D1280000F02BF9280078
:102AF000FFF744FF2800FFF74AFF01280DD1280007
:102B0000FFF726FF012808D12800FFF726FF28003D
:102B1000FFF713FF2800FFF70BFF70BD80E100E017
:102B200080E200E000E400E01CED00E010B50400ED
:102B30002000FFF702FF2000FFF704FF2000FFF74F
:102B4000F7FE002010BD0000FFF7FFFFFFFBFFFFB7
:102B5000F0B5A7B018210024220001AD2800FFF72E
:102B600059FC1C21220007AD2800FFF753FC64210B
:102B700022000EAD2800FFF74DFC5A4F59488742FE
:102B800046D1062069460870402001900225029532
:102B9000059503940694049501A99048FFF7BCFCA1
:102BA000802601960295059503940694049501A943
:102BB0008A48FFF7B1FC8A48066001960126029612
:102BC000059503940696049501A98648FFF7A4FC91
:102BD00007A80A2181700321C170457008940C94E4
:102BE00031000176310001703021099180214901C5
:102BF0000A912100017407A93800FDF727FD38006C
:102C0000FFF794FF249425942598002814D102E01E
:102C10000020C04363E09C4811900E940F941094E0
:102C20009A481C900EA8210034228154210035229C
:102C30008154362144541CE0934815901494139405
:102C400093481A9080200005189080204005179026
:102C50008E481F900EA8310041228154310040223D
:102C600081548C49239131004D22815431004C22F2
:102C700081540EA86021465400220EA93800FDF7A9
:102C800023FE3800FFF771FE3800FFF78AFE380098
:102C9000FFF767FE3800FFF77FFE3800FFF76EFE94
:102CA0003800FFF783FE3800FFF757FE3800FFF7C4
:102CB00068FE694600200856FFF7DCFD69460020E3
:102CC0000856FFF7E3FD02216A4600201056FFF781
:102CD000E9FD694600200856FFF7C0FD002027B037
:102CE000F0BD000000800240FBB582B017000A9ED4
:102CF0000B9D002429003000FFF766FE0090641C45
:102D00000098012802D00E488442F3D12A0002998B
:102D10003000FFF766FE2A0003993000FFF776FEC9
:102D20002A0039003000FFF78CFE2A000499300099
:102D3000FFF79CFE29003000FFF742FE05B0F0BD12
:102D4000FFFF0500F8B50700534E3800FFF7A3FE5C
:102D500030603800FFF7A3FE30723800FFF7A5FEA1
:102D600004003800FFF7A5FE050020007072200A5D
:102D7000B0722000000CF072200E307328007073C7
:102D8000280AB0732800000CF073280E3074707A93
:102D900068280CD1134E40213000FFF791FEFA2035
:102DA000800000F081F840213000FFF786FEF1BD81
:102DB00000B5354901600821017200210A00D2B234
:102DC000082A09DA354A0B00DBB2D25C0B00DBB211
:102DD000C3185A72491CF1E700BD0000000C004006
:102DE000580C0040400C0040F6B585B006000C00C1
:102DF0001F00002E03D1206845056D0D20E0012E37
:102E000006D120684005400D80252D01054317E0BF
:102E1000022E0CD160684003214901406068800C9B
:102E20004005400D0843C0256D01054308E060687A
:102E300041036068800C4005400D0843194D05436F
:102E4000207A0490207B0006E17A09040143A07AED
:102E500000020843617A01430391207C0006E17B74
:102E600009040143A07B00020843617B01430291F6
:102E7000019706980090029B039A04992800FFF797
:102E800033FF07B0F0BD0000AD060000FF070000F3
:102E900093D9B51AFFFFFF1F280000200000002073
:102EA00000E0FF7F0018008010B504002000441EE1
:102EB000002804D0FA20800000F002F8F6E710BDE8
:102EC00010B50400104800681049FEF763FD604328
:102ED0000F49884202D380204004FFE70D490A6869
:102EE000042313430B6001220B6813430B60431E42
:102EF000094C23600023094C23600B681B0C134012
:102F0000002BFAD010BD00BF1000002040420F007F
:102F10000100000110E000E014E000E018E000E033
:102F200023490A6802430A60704722490A6802433B
:102F30000A60704720490A68204B134003430B6026
:102F400070470168802252040A4302607047026899
:102F50001B4B13400B43036070470268194B13402F
:102F60000B4303607047026880239A430A43026060
:102F70007047026860239A430A4302607047026800
:102F800018239A430A4302607047026804239A4355
:102F90000A4302607047026803239A430A430260AF
:102FA0007047C268120C12040A43C26070470000E6
:102FB000342400404C24004044240040FFF3FFFF31
:102FC000FFBFFFFFFFE3FFFFF8B504000D00002087
:102FD0000600002D00D102E182498C4200D0FEE7BC
:102FE000802212012B68934207D02B688027FF00B4
:102FF000BB4202D02B68002B01D1012300E003006B
:10300000DBB2002B00D1FEE76B68002B04D06B68AD
:103010008027FF01BB4201D1012300E00300DBB2A6
:10302000002B00D1FEE7AB68002B20D0AB688027D7
:10303000FF00BB421BD0AB68934218D0AA68C023E4
:103040001B019A4213D0AA6880235B019A420ED0DA
:10305000AA68A0235B019A4209D0AA68C0235B0139
:103060009A4204D0AA68E0235B019A4201D101226E
:1030700000E00200D2B2002A00D1FEE72A69002A4D
:1030800008D02A69012A05D02A69022A02D02A69B1
:10309000032A01D1012200E00200D2B2002A00D1AD
:1030A000FEE76A69002A08D06A69082A05D06A69B9
:1030B000102A02D06A69182A01D1012200E0020018
:1030C000D2B2002A00D1FEE7AA69002A02D0AA697A
:1030D000042A01D1012200E00200D2B2002A00D16C
:1030E000FEE72A6A002A05D02A6A202A02D02A6A24
:1030F000402A01D1012200E00200D2B2002A00D110
:10310000FEE7EA69002A02D0EA69802A01D101209B
:10311000FFE7C0B2002800D1FEE78C421FD1022099
:10312000FFF7FEFE2869022805D00220FFF7FDFE0A
:103130002868FFF7FFFE69682000FFF708FFA9680D
:103140002000FFF70AFFE9682000FFF72AFF29693E
:103150002000FFF720FF2869002806D101E00020A9
:103160003FE069692000FFF70AFFA9692000FFF727
:103170000CFF2869002805D0022815D00FD303289A
:103180001AD01EE068688021C901884206D1E96929
:103190002000FFF7E8FE2000FFF7D3FE1DE0296ABC
:1031A0002000FFF7E6FE18E0E9692000FFF7DBFEEC
:1031B0002000FFF7C6FE10E0296A2000FFF7D9FEC5
:1031C0000BE068688021C901884206D1E9692000C6
:1031D000FFF7C9FE2000FFF7B4FE01200600300013
:1031E000C0B2F2BD0088014078490A6802430A6013
:1031F00070470268F0239A430A43026070470168EF
:1032000008220A4302607047016808229143016066
:103210007047026804239A430A43026070470268B9
:1032200003239A430A430260704741688022520098
:103230000A43426070474168654A0A4042607047ED
:10324000416802220A43426070474168022291436A
:10325000416070474A07520F0261704738B5040059
:103260000D005C48844200D0FEE72968042905D09F
:103270002968022902D02968012901D1012100E031
:103280000021C9B2002900D1FEE7696800292CD0CD
:103290006968102929D06968202926D069683029F1
:1032A00023D06968402920D0696850291DD06968F9
:1032B00060291AD06968702917D06968802914D0EC
:1032C0006968902911D06968A0290ED06968B02971
:1032D0000BD06968C02908D06968D02905D0696811
:1032E000E02902D06968F02901D1012100E0002124
:1032F000C9B2002900D1FEE7E968002902D0E968D7
:10330000042901D1012100E00021C9B2002900D126
:10331000FEE72969002908D02969012905D0296912
:10332000022902D02969032901D1012100E00021ED
:10333000C9B2002900D1FEE7A969012902D0A96913
:10334000002901D1012100E00021C9B2002900D1EA
:10335000FEE784420FD180204000FFF745FF296837
:103360002000FFF777FF69682000FFF742FFA86899
:10337000012806D101E0002026E02000FFF73FFFF2
:1033800002E02000FFF740FFE9682000FFF741FF5F
:10339000E868042803D129692000FFF740FF686925
:1033A000012803D12000FFF74BFF02E02000FFF7C8
:1033B0004CFFA869012803D12000FFF736FF02E087
:1033C0002000FFF738FF012032BD00003424004008
:1033D000FFFEFFFF00280140806AC00F7047816A2E
:1033E000802252041140802212060A4382627047F2
:1033F000C06AC00F7047C16A802252041140802207
:1034000012060A43C2627047006BC00F7047016B1F
:10341000802252041140802212060A430263704740
:103420008AB2426170478AB282617047816808003F
:103430008005C00F7047802189008160704759491D
:10344000C160704780B55848FFF7F9FFFEE7FEB549
:1034500000200500070002900190544C2000FFF767
:10346000D3FF0600012E02D12000FFF7D0FF20007D
:10347000FFF7BEFF00900098012802D12000FFF75F
:10348000BAFF2000FFF7A8FF0700012F02D120009C
:10349000FFF7A5FF464D2800FFF7C8FF0400012CE9
:1034A00002D12800FFF7C7FFF7BD80B5FFF7CAFFBD
:1034B00001BD80B50121002000F0E6F801280ED101
:1034C000FA21C900002000F0DFF8012807D11421FB
:1034D000012000F0D9F80028F9D0FFF7B3FF01BDB3
:1034E000F8B5344C04212000FEF7CCF80600042186
:1034F0002000FEF75BF90700032E23D0012F21D116
:1035000004212000FEF7DCF940212000FFF78BFFAB
:10351000FA25AD002800FFF7C7FC40212000FFF787
:103520007FFF2800FFF7C0FC234C2000FFF740FC82
:10353000224D01232A0021000020FFF755FC28001E
:10354000FFF700FCF1BD10B5052000F0C6F8FFF74D
:103550005FF90422B021002000F057F8FA21C900D9
:10356000012000F091F80028F8D0042000F0DFF8E6
:10357000134C2000FEF790FD00F010F9FFF7E8FA79
:1035800000F039F900F056F900F0BCF8FFF791FFB0
:103590000C4801680129F7D1002101602000FEF7E5
:1035A000CFFCF1E7BBAA5C5C0028004000100040A3
:1035B00000200040400C0040140000200080024029
:1035C000183C000044000020416801220A43426088
:1035D0007047C06880210840704780B586B01821C8
:1035E00000226846FEF716FF8020000200900320AC
:1035F00001900020029002210491059003916946F8
:103600001F48FEF789FF07B000BDF6B587B004007C
:103610000F002000C0B2012801D1FFF7DEFF08989B
:103620000090019701200290002103910491220053
:10363000D2B2012A00D00800C0B205900691114D07
:1036400069462800FFF70AFE06003000C0B20128D4
:1036500006D12800FFF7B8FFFA204000FFF730FC42
:103660003000C0B209B0F0BD80B50648FFF7B1FF29
:10367000802801D1012000E00020C0B202BD00007E
:10368000000C00400028014070B504004D076D0F8C
:10369000CE08002E01D0002D00D0761CFFF7E4FFED
:1036A0002100C9B2884208D1002E06D0761E002E15
:1036B000F4D00820FFF704FCF0E7002E01D1012030
:1036C00000E00020C0B270BD81B00021009110491F
:1036D00001600168009101B07047FEB50400002050
:1036E0000700019000940B4D6946280000F00DF989
:1036F00006000198002802D12800FFF7E5FF3000FE
:10370000C0B2FEBD80B50348FFF7DEFF01BD00007B
:103710005A5A34120014014042681C239A430A4347
:10372000426070474168012291434160704738B55B
:103730000400044D21002800FFF7EEFF2800FFF7EA
:10374000F1FF31BD00280040816901220A438261F6
:103750007047016940220A4302617047016908000D
:103760004006C00F7047416908004006C00F70470F
:1037700040214161704710B51B4C2000FFF7EEFF60
:1037800001280AD12000FFF7EEFF012805D1200013
:10379000FFF7EEFF01201549086010BD10B58AB093
:1037A0008020000101900020059002900390FF21ED
:1037B0004031049106900790099008900A4C01A9A5
:1037C0002000FFF701FC2000FFF7D2FF2000FFF7E9
:1037D000C0FF0120009014216846FFF71DF820006B
:1037E000FFF7B2FF0AB010BD00880140440000207E
:1037F0008AB24261704710B586B01821002268462F
:10380000FEF708FE0A4C40212000FFF7F1FF4020A0
:103810000090012001900020029002210491059067
:10382000039169462000FEF777FE06B010BD000048
:10383000400C0040F8B58CB01821002206A8FEF715
:10384000E9FD0821002201A8FEF7E4FD0C21002279
:1038500003A8FEF7DFFD04260696002407940894CB
:103860000A9402250B9509950F4F06A93800FEF71B
:1038700053FE0194029401A8FDF7C4FD03960120B4
:10388000010003AA1172049003A93800FDF7FDFDA1
:1038900004213800FEF714F800951E216846FEF753
:1038A000BBFF0DB0F0BD00BF400C004049490A68A5
:1038B00002430A60704781B00021009146490160CF
:1038C0000168009101B0704781B000220092426807
:1038D00007239A430A4342600268009201B070478E
:1038E00081B001000020009088680005000D0A6882
:1038F000009201B0704781B0002200920A05120DBB
:10390000C2600268009201B07047F8B506000C0072
:103910000020050007000090002C57D02F498E4250
:1039200000D0FEE761682E4A914200D3FEE721688D
:10393000002914D02168012911D0216802290ED054
:10394000216803290BD02168042908D021680529A2
:1039500005D02168062902D02168072901D101205C
:10396000FFE7C0B2002800D1FEE72020FFF79EFF4E
:103970003000FFF7A0FF21683000FFF7A5FF3000FF
:10398000FFF7AEFF00906068002819D0009800286B
:103990000BD13000FFF7A4FF012811D02800451CEF
:1039A000FA21490088420BD2F3E73000FFF798FF75
:1039B000002805D02800451CFA2149008842F4D38C
:1039C00061683000FFF797FF012007003800C0B2A0
:1039D000F2BD0000342400405A5A34120014014051
:1039E000FF0F0000000C0040AD0E0000C90E0000EB
:1039F000931000009D100000A71000001F1200008F
:103A0000371200002D130000400C0040E30E0000B0
:103A1000FF0E0000BF100000C9100000D31000000E
:103A20003D1200005512000045130000800C0040BC
:103A3000190F0000350F0000EB100000F51000001A
:103A4000FF1000005B120000731200005D13000005
:103A5000C00C00404F0F00006B0F0000171100005A
:103A6000211100002B1100007912000091120000BA
:103A700075130000000D0040850F0000A10F00002D
:103A8000431100004D110000571100009712000073
:103A9000AF1200008D130000400D0040BB0F00006E
:103AA000D70F00006F110000791100008311000092
:103AB000B5120000CD120000A5130000800D0040DB
:103AC000F10F00000D1000009B110000A511000077
:103AD000AF110000D3120000EB120000BD13000074
:103AE000C00D00402710000043100000C711000067
:103AF000D1110000DB110000F112000009130000D9
:103B0000D5130000000E00405D1000007910000089
:103B1000F3110000FD110000071200000F13000058
:103B200027130000ED13000009480168094A1140FD
:103B3000094A0A4B994200D1094A0A49002301E087
:103B40000B60091D9142FBD3074880470748004797
:103B500004FBFF1FFF00FF00000001205500AA002A
:103B60000080002000000020DD220000FD3B00005E
:103B700010B5074979441831064C7C44163404E0EA
:103B8000081D0A68891888470100A142F8D110BDB4
:103B90005C0000006800000000F00FF8002801D071
:103BA000FFF7E6FF00BF00BF002000BF00BF00BF5F
:103BB00000BFFFF7C8FC00F002F80120704780B595
:103BC00000F002F801BDFEE700F000F807463846B5
:103BD00000F002F8FBE7FEE780B500BF00BF024A35
:103BE00011001820ABBEFBE72600020057DEFFFFE6
:103BF000730000002C000000000000200548014672
:103C000003B4684680F3098800BF00BF00BF00BF4F
:103C1000FFF7C2FFA5EDF5FE00127A0000E00000FC
:103C2000000000000A00000000000000FEE7FEE7C0
:103C3000FEE7FEE7FEE7FEE7FEE7FEE7FEE7FEE75C
:103C4000FEE7FEE7FEE7FEE7FEE7FEE7FEE7FEE74C
:103C5000FEE7FEE7FEE7FEE7FEE7FEE7FEE7FEE73C
:103C6000FEE70909683455AA673658160080FD003A
:093C700005127A0000127ACB0063
:0400000500003BFDBF
:00000001FF
